:020000040800F2
:10000000005000207D0600080906000811060008BF
:100010001906000821060008290600080000000053
:100020000000000000000000000000003106000891
:100030003D060008000000004906000855060008BB
:10004000C5060008C5060008C5060008C506000864
:10005000C5060008C506000861060008C5060008B8
:10006000C5060008C5060008C5060008C506000844
:10007000C5060008C5060008C5060008C506000834
:10008000C5060008C5060008C5060008C506000824
:10009000C5060008C5060008C5060008C506000814
:1000A000C5060008C5060008C5060008C506000804
:1000B000C5060008C5060008C5060008C5060008F4
:1000C000C5060008C5060008C5060008C5060008E4
:1000D000C5060008C5060008C5060008C5060008D4
:1000E000C5060008C5060008C50600080000000097
:1000F0000000000000000000000000000000000000
:0C01000000000000000000005FF808F1A3
:10010C0010B5054C237833B9044B13B10448AFF345
:10011C0000800123237010BD0C00002000000000A3
:10012C00E826000808B5034B1BB103490348AFF39D
:10013C00008008BD0000000010000020E826000828
:10014C0080B500AF00F0BAFA00F064F800F040F9A6
:10015C0000F0B0F800F0ECF8284802F01FF8284B3B
:10016C001B78DBB2012B0ED100220121254801F0B6
:10017C002CFA01224FF40051234801F026FA642096
:10018C0000F0FEFA38E0214800F0F6FB0A211F4887
:10019C0000F0CCFC0346002B05D11C4800F0CCFD34
:1001AC0003461B4A1360194800F094FC184B1B685B
:1001BC0040F6AC5293420BD900220121114801F0B8
:1001CC0004FA01224FF400510F4801F0FEF910E03F
:1001DC000F4B1B6840F2DB5293420AD801220121DB
:1001EC00084801F0F2F900224FF40051064801F0E2
:1001FC00ECF9C82000F0C4FAB1E700BF58000020A9
:10020C00A4000020000C0140001001402800002038
:10021C00A000002080B594B000AF07F1280328227D
:10022C000021184602F02EFA07F1140300221A607E
:10023C005A609A60DA601A613B1D00221A605A609B
:10024C009A60DA600223BB620123BB631023FB6359
:10025C0000237B6407F12803184601F0E7F90346F5
:10026C00002B01D000F038F90F237B610023BB6118
:10027C000023FB6100233B6200237B6207F1140324
:10028C000021184601F054FC0346002B01D000F06D
:10029C0023F902237B600023FB603B1D184601F011
:1002AC00C1FD0346002B01D000F016F900BF5037FA
:1002BC00BD4680BD80B584B000AF3B1D00221A60E6
:1002CC005A609A60184B194A1A60174B00229A60B0
:1002DC00154B00221A73144B00221A75124B4FF453
:1002EC006022DA61104B00225A600F4B01221A6116
:1002FC000D4800F069FA0346002B01D000F0ECF831
:10030C0001237B600123BB600023FB603B1D19466E
:10031C00054800F01DFD0346002B01D000F0DCF871
:10032C0000BF1037BD4680BD2800002000240140CE
:10033C0080B586B000AF07F1080300221A605A603E
:10034C009A60DA603B4600221A605A601E4B1F4AC4
:10035C001A601D4B07225A601B4B00229A601A4BE5
:10036C004FF6FF72DA60184B00221A61164B00220E
:10037C005A61154B00229A61134801F0BFFE0346E7
:10038C00002B01D000F0A8F84FF48053BB6007F1AC
:10039C00080319460C4801F04BFF0346002B01D013
:1003AC0000F09AF800233B6000237B603B46194623
:1003BC00054802F009F90346002B01D000F08CF837
:1003CC0000BF1837BD4680BD58000020002C0140EE
:1003DC0080B586B000AF07F1080300221A605A609E
:1003EC009A60DA60214B9B69204A43F004039361C5
:1003FC001E4B9B6903F004037B607B681B4B9B6962
:10040C001A4A43F008039361184B9B6903F00803E5
:10041C003B603B6800220121154801F0D6F801230E
:10042C00BB60144BFB6001233B6107F108031946C9
:10043C00114800F02FFF0123BB600123FB60002358
:10044C003B6102237B6107F108031946084800F061
:10045C0021FF00220021062000F0E5FE062000F01E
:10046C00FEFE00BF1837BD4680BD00BF0010024025
:10047C00000C0140000011100008014080B582B052
:10048C0000AF0346FB80FB88012B18D101210E48DD
:10049C0001F084F80346002B0ED10C4B01221A708C
:1004AC00012201210A4801F090F801224FF4005179
:1004BC00084801F08AF802E0044B00221A7000BFD1
:1004CC000837BD4680BD00BF00080140A4000020D5
:1004DC00000C01400010014080B400AF72B600BFA8
:1004EC0000BFFDE780B485B000AF154B9B69144A83
:1004FC0043F001039361124B9B6903F00103BB6052
:10050C00BB680F4BDB690E4A43F08053D3610C4B35
:10051C00DB6903F080537B607B680A4B5B68FB6094
:10052C00FB6823F0E063FB60FB6843F08063FB60D7
:10053C00044AFB68536000BF1437BD4680BC70474B
:10054C00001002400000014080B588B000AF786018
:10055C0007F1100300221A605A609A60DA607B6817
:10056C001B68144A934221D1134B9B69124A43F4E2
:10057C0000739361104B9B6903F40073FB60FB6881
:10058C000D4B9B690C4A43F0040393610A4B9B6926
:10059C0003F00403BB60BB6802233B6103237B6154
:1005AC0007F110031946054800F074FE00BF203710
:1005BC00BD4680BD002401400010024000080140EF
:1005CC0080B485B000AF78607B681B68094A9342A1
:1005DC000BD1094B9B69084A43F400639361064BAA
:1005EC009B6903F40063FB60FB6800BF1437BD46D6
:1005FC0080BC7047002C01400010024080B400AF5A
:10060C0000BFFDE780B400AF00BFFDE780B400AFD2
:10061C0000BFFDE780B400AF00BFFDE780B400AFC2
:10062C0000BFFDE780B400AF00BFBD4680BC704783
:10063C0080B400AF00BFBD4680BC704780B400AF33
:10064C0000BFBD4680BC704780B500AF00F07CF8A1
:10065C0000BF80BD80B500AF012000F0CFFF00BF10
:10066C0080BD80B400AF00BFBD4680BC70470000A9
:10067C00FFF7F7FF0B480C490C4A002302E0D45853
:10068C00C4500433C4188C42F9D3094A094C0023D2
:10069C0001E013600432A242FBD301F0FBFFFFF731
:1006AC004FFD7047000000200C0000204827000878
:1006BC000C000020AC000020FEE7000080B500AF6D
:1006CC00084B1B68074A43F010031360032000F02B
:1006DC009FFD0F2000F008F8FFF704FF00231846D9
:1006EC0080BD00BF0020024080B582B000AF7860B2
:1006FC00124B1A68124B1B7819464FF47A73B3FBE2
:10070C00F1F3B2FBF3F3184600F0B7FD0346002BF0
:10071C0001D001230EE07B680F2B0AD800227968E8
:10072C004FF0FF3000F07FFD064A7B68136000231A
:10073C0000E0012318460837BD4680BD00000020AC
:10074C00080000200400002080B400AF054B1B788B
:10075C001A46054B1B681344034A136000BFBD4681
:10076C0080BC704708000020A800002080B400AFB7
:10077C00024B1B681846BD4680BC7047A800002081
:10078C0080B584B000AF7860FFF7F0FFB8607B688D
:10079C00FB60FB68B3F1FF3F05D00A4B1B781A4690
:1007AC00FB681344FB6000BFFFF7E0FF0246BB6829
:1007BC00D31AFA689A42F7D800BF00BF1037BD466B
:1007CC0080BD00BF0800002080B586B000AF786007
:1007DC000023FB7500233B610023BB600023FB60FF
:1007EC007B68002B01D10123BEE07B689B68002B4A
:1007FC007B689B6A002B09D17B680022DA627B68DC
:10080C00002283F824207868FFF79EFE786800F0B9
:10081C00F1FB0346FB757B689B6A03F01003002B0E
:10082C0040F09980FB7D002B40F095807B689B6AA3
:10083C0023F4885323F0020343F002027B689A628C
:10084C007B685A687B68DB691A437B681B7B5B009F
:10085C001343BA681343BB607B689B68B3F5807F16
:10086C0003D07B689B68012B02D14FF4807300E0AE
:10087C0000233A6913433B617B681B7D012B19D123
:10088C007B681B7B002B09D17B689B69013B5A035E
:10089C003B69134343F400633B610BE07B689B6A49
:1008AC0043F020027B689A627B68DB6A43F00102AA
:1008BC007B68DA627B681B685B6823F469417B6840
:1008CC001B683A690A435A607B681B689A68284B14
:1008DC0013407A681268B9680B4393607B689B6815
:1008EC00B3F5807F03D07B689B68012B04D17B68B8
:1008FC001B69013B1B05FB607B681B68DB6A23F4EF
:10090C0070017B681B68FA680A43DA627B681B68B3
:10091C009A68184B1340BA689A420BD17B68002234
:10092C00DA627B689B6A23F0030343F001027B6865
:10093C009A6218E07B689B6A23F0120343F0100262
:10094C007B689A627B68DB6A43F001027B68DA623F
:10095C000123FB7507E07B689B6A43F010027B6800
:10096C009A620123FB75FB7D18461837BD4680BD86
:10097C00FDF7E1FFFE0E1FFF80B584B000AF78607D
:10098C000023FB737B6893F82430012B01D10223E5
:10099C0098E07B68012283F82420786800F0D0FA74
:1009AC000346FB73FB7B002B40F087807B689B6AC4
:1009BC0023F4407323F0010343F480727B689A6242
:1009CC007B681B68414A934205D1414B5B6803F439
:1009DC007023002B15D17B689B6A23F480127B68F3
:1009EC009A627B681B685B6803F48063002B26D0DB
:1009FC007B689B6A23F4405343F480527B689A6271
:100A0C001DE07B689B6A43F480127B689A627B686A
:100A1C001B682F4A934204D07B681B682B4A934275
:100A2C000DD12B4B5B6803F48063002B07D07B68E4
:100A3C009B6A23F4405343F480527B689A627B6830
:100A4C009B6A03F48053002B06D07B68DB6A23F08F
:100A5C0006027B68DA6202E07B680022DA627B685D
:100A6C00002283F824207B681B686FF002021A6056
:100A7C007B681B689B6803F46023B3F5602F13D16C
:100A8C007B681B68114A934205D1114B5B6803F4D8
:100A9C007023002B08D17B681B689A687B681B68E5
:100AAC0042F4A0029A600CE07B681B689A687B6831
:100ABC001B6842F480129A6003E07B68002283F882
:100ACC002420FB7B18461037BD4680BD0028014012
:100ADC000024014080B584B000AF78600023FB7324
:100AEC007B6893F82430012B01D102231AE07B6838
:100AFC00012283F82420786800F07CFA0346FB730B
:100B0C00FB7B002B09D17B689B6A23F4885323F071
:100B1C00010343F001027B689A627B68002283F830
:100B2C002420FB7B18461037BD4680BD90B587B09E
:100B3C0000AF7860396000237B610023FB600023E9
:100B4C003B61FFF713FE78617B681B689B6803F4BD
:100B5C008073002B0BD07B689B6A43F020027B6870
:100B6C009A627B68002283F824200123D3E07B68FF
:100B7C001B685B6803F48073002B31D17B681B68A6
:100B8C00DB6A03F47003002B2AD121E03B68B3F13C
:100B9C00FF3F1DD03B68002B07D0FFF7E7FD024657
:100BAC007B69D31A3A689A4212D27B681B681B681D
:100BBC0003F00203002B0BD17B689B6A43F0040209
:100BCC007B689A627B68002283F824200323A2E0CE
:100BDC007B681B681B6803F00203002BD6D070E007
:100BEC004F4B1C68022001F0D3F90346B4FBF3F21F
:100BFC007B681B6819694B4B0B40002B18D17B6829
:100C0C001B68D968484B0B40002B11D17B681B68C3
:100C1C001969464B0B40002B08D17B681B68D968BF
:100C2C00434B0B40002B01D1142320E029231EE061
:100C3C007B681B6819693D4B0B40002B06D17B6808
:100C4C001B68D9683A4B0B40002B0DD07B681B6896
:100C5C001969384B0B40002B08D17B681B68D9688D
:100C6C00344B0B40002B01D1542300E0FC2302FB3E
:100C7C0003F33B6121E03B68B3F1FF3F1AD03B68C3
:100C8C00002B07D0FFF772FD02467B69D31A3A6836
:100C9C009A420FD2FB683A699A420BD97B689B6ADD
:100CAC0043F004027B689A627B68002283F824205C
:100CBC00032330E0FB680133FB60FB683A699A421E
:100CCC00D9D87B681B686FF012021A607B689B6A2C
:100CDC0043F400727B689A627B681B689B6803F420
:100CEC006023B3F5602F15D17B681B7B002B11D1D2
:100CFC007B689B6A23F480727B689A627B689B6A30
:100D0C0003F48053002B05D17B689B6A43F00102EE
:100D1C007B689A62002318461C37BD4690BD00BF05
:100D2C000000002024499224244992009224491264
:100D3C00922449004992240080B483B000AF7860BB
:100D4C007B681B68DB6C18460C37BD4680BC704753
:100D5C0080B485B000AF786039600023FB7300234A
:100D6C00BB607B6893F82430012B01D10223DCE0BB
:100D7C007B68012283F824203B685B68062B1CD817
:100D8C007B681B68596B3B685A6813469B0013447D
:100D9C00053B1F2202FA03F3DB4319403B6818683A
:100DAC003B685A6813469B001344053B00FA03F258
:100DBC007B681B680A435A633CE03B685B680C2BFE
:100DCC001CD87B681B68196B3B685A6813469B00E0
:100DDC001344233B1F2202FA03F3DB4319403B6805
:100DEC0018683B685A6813469B001344233B00FA6F
:100DFC0003F27B681B680A431A631BE07B681B6861
:100E0C00D96A3B685A6813469B001344413B1F2226
:100E1C0002FA03F3DB4319403B6818683B685A68D5
:100E2C0013469B001344413B00FA03F27B681B689A
:100E3C000A43DA623B681B68092B1CD97B681B6868
:100E4C00D9683B681A6813465B0013441E3B0722A3
:100E5C0002FA03F3DB4319403B6898683B681A6855
:100E6C0013465B0013441E3B00FA03F27B681B68BD
:100E7C000A43DA6019E07B681B6819693B681A68D9
:100E8C0013465B001344072202FA03F3DB431940B9
:100E9C003B6898683B681A6813465B00134400FA79
:100EAC0003F27B681B680A431A613B681B68102BB2
:100EBC0003D03B681B68112B32D17B681B681D4A21
:100ECC00934225D17B681B689B6803F40003002BBD
:100EDC0026D17B681B689A687B681B6842F4000209
:100EEC009A603B681B68102B1AD1134B1B68134A72
:100EFC00A2FB03239A0C13469B0013445B00BB60BC
:100F0C0002E0BB68013BBB60BB68002BF9D107E07A
:100F1C007B689B6A43F020027B689A620123FB7317
:100F2C007B68002283F82420FB7B18461437BD46CF
:100F3C0080BC7047002401400000002083DE1B436E
:100F4C0080B584B000AF78600023FB600023BB60E9
:100F5C007B681B689B6803F00103012B40D07B6806
:100F6C001B689A687B681B6842F001029A601F4BF1
:100F7C001B681F4AA2FB03239B0CBB6002E0BB68EF
:100F8C00013BBB60BB68002BF9D1FFF7EFFBF860AE
:100F9C001FE0FFF7EBFB0246FB68D31A022B18D9B4
:100FAC007B681B689B6803F00103012B11D07B68E5
:100FBC009B6A43F010027B689A627B68DB6A43F0A1
:100FCC0001027B68DA627B68002283F8242001230B
:100FDC0007E07B681B689B6803F00103012BD8D1E9
:100FEC00002318461037BD4680BD00BF000000200E
:100FFC0083DE1B4380B584B000AF78600023FB60B8
:10100C007B681B689B6803F00103012B2ED17B6866
:10101C001B689A687B681B6822F001029A60FFF7D4
:10102C00A5FBF8601BE0FFF7A1FB0246FB68D31A97
:10103C00022B14D97B681B689B6803F00103012BFE
:10104C000DD17B689B6A43F010027B689A627B68C7
:10105C00DB6A43F001027B68DA62012307E07B68FC
:10106C001B689B6803F00103012BDCD0002318469E
:10107C001037BD4680BD000080B485B000AF7860ED
:10108C007B6803F00703FB600C4BDB68BB60BA6842
:10109C004FF6FF031340BB60FB681A02BB68134397
:1010AC0043F0BF6343F40033BB60044ABB68D360B6
:1010BC0000BF1437BD4680BC704700BF00ED00E098
:1010CC0080B400AF044BDB681B0A03F0070318461F
:1010DC00BD4680BC704700BF00ED00E080B483B01B
:1010EC0000AF0346FB7197F90730002B0BDBFB7944
:1010FC0003F01F02064997F907305B09012000FA3B
:10110C0002F241F8232000BF0C37BD4680BC70476B
:10111C0000E100E080B483B000AF03463960FB719E
:10112C0097F90730002B0ADB3B68DAB20C4997F9C8
:10113C0007301201D2B20B4483F800230AE03B685B
:10114C00DAB20849FB7903F00F03043B1201D2B267
:10115C000B441A7600BF0C37BD4680BC704700BFED
:10116C0000E100E000ED00E080B489B000AFF86071
:10117C00B9607A60FB6803F00703FB61FB69C3F19C
:10118C000703042B28BF0423BB61FB690433062B24
:10119C0002D9FB69033B00E000237B614FF0FF3277
:1011AC00BB6902FA03F3DA43BB681A407B699A40C5
:1011BC004FF0FF317B6901FA03F3D9437B680B4095
:1011CC00134318462437BD4680BC704780B582B0A7
:1011DC0000AF78607B68013BB3F1807F01D30123C2
:1011EC000FE00A4A7B68013B53600F214FF0FF3040
:1011FC00FFF790FF054B00229A60044B07221A6000
:10120C00002318460837BD4680BD00BF10E000E043
:10121C0080B582B000AF78607868FFF72DFF00BF13
:10122C000837BD4680BD80B586B000AF0346B960B7
:10123C007A60FB7300237B61FFF742FF78617A6869
:10124C00B9687869FFF790FF024697F90F3011469D
:10125C001846FFF75FFF00BF1837BD4680BD80B54D
:10126C0082B000AF0346FB7197F907301846FFF7C1
:10127C0035FF00BF0837BD4680BD80B582B000AFDA
:10128C0078607868FFF7A2FF034618460837BD461A
:10129C0080BD000080B48BB000AF78603960002353
:1012AC007B6200233B6269E101227B6A02FA03F351
:1012BC00FB613B681B68FA691340BB61BA69FB6947
:1012CC009A4240F058813B685B689A4A93425ED0E0
:1012DC00984A934275D8984A934258D0964A93426A
:1012EC006FD8964A934252D0944A934269D8944A02
:1012FC0093424CD0924A934263D8924A934246D03E
:10130C00904A93425DD8122B2AD8122B59D801A29D
:10131C0052F823F09B13000875130008871300087C
:10132C00C9130008CF130008CF130008CF1300080F
:10133C00CF130008CF130008CF130008CF130008F9
:10134C00CF130008CF130008CF130008CF130008E9
:10135C00CF130008CF1300087D1300089113000869
:10136C00794A934213D02CE03B68DB683B6229E05E
:10137C003B68DB6804333B6224E03B68DB68083382
:10138C003B621FE03B68DB680C333B621AE03B6856
:10139C009B68002B02D104233B6213E03B689B68E3
:1013AC00012B05D108233B627B68FA691A6109E0BD
:1013BC0008233B627B68FA695A6103E000233B62B5
:1013CC0000E000BFBB69FF2B01D87B6801E07B68A4
:1013DC0004337B61BB69FF2B02D87B6A9B0002E064
:1013EC007B6A083B9B003B617B691A680F213B6958
:1013FC0001FA03F3DB431A40396A3B6901FA03F340
:10140C001A437B691A603B685B6803F08053002BBE
:10141C0000F0B1804D4B9B694C4A43F00103936142
:10142C004A4B9B6903F00103BB60BB68484A7B6A6B
:10143C009B08023352F82330FB607B6A03F00303F2
:10144C009B000F2202FA03F3DB43FA681340FB60A4
:10145C007B68404A934213D07B683F4A93420DD03D
:10146C007B683E4A934207D07B683D4A934201D148
:10147C00032306E0042304E0022302E0012300E03E
:10148C0000237A6A02F0030292009340FA68134335
:10149C00FB602F497B6A9B080233FA6841F82320D2
:1014AC003B685B6803F48013002B06D02D4B9A68C5
:1014BC002C49BB6913438B6006E02A4B9A68BB69C5
:1014CC00DB43284913408B603B685B6803F40013D3
:1014DC00002B06D0234BDA682249BB691343CB603F
:1014EC0006E0204BDA68BB69DB431E491340CB6036
:1014FC003B685B6803F40033002B06D0194B5A6829
:10150C001849BB6913434B6006E0164B5A68BB691C
:10151C00DB43144913404B603B685B6803F4803336
:10152C00002B21D00F4B1A680E49BB6913430B607B
:10153C0021E000BF0000321000003110000022102A
:10154C0000002110000012100000111000100240C9
:10155C000000014000080140000C01400010014057
:10156C0000140140000401400B4B1A68BB69DB43BB
:10157C00094913400B607B6A01337B623B681A6834
:10158C007B6A22FA03F3002B7FF48EAE00BF00BF00
:10159C002C37BD4680BC70470004014080B485B038
:1015AC0000AF78600B467B807B689A687B88134021
:1015BC00002B02D00123FB7301E00023FB73FB7BA8
:1015CC0018461437BD4680BC704780B483B000AF5A
:1015DC0078600B467B8013467B707B78002B03D0A6
:1015EC007A887B681A6103E07B881A047B681A612D
:1015FC0000BF0C37BD4680BC7047000080B582B080
:10160C0000AF0346FB80084B5A69FB881340002B44
:10161C0006D0054AFB885361FB881846FEF72EFF5F
:10162C0000BF0837BD4680BD0004014080B586B0C0
:10163C0000AF78607B68002B01D1012372E27B68DC
:10164C001B6803F00103002B00F08780924B5B6852
:10165C0003F00C03042B0CD08F4B5B6803F00C03D2
:10166C00082B12D18C4B5B6803F48033B3F5803FAD
:10167C000BD1894B1B6803F40033002B6CD07B68B7
:10168C005B68002B68D101234CE27B685B68B3F587
:10169C00803F06D1804B1B687F4A43F48033136034
:1016AC002EE07B685B68002B0CD17B4B1B687A4A65
:1016BC0023F480331360784B1B68774A23F4802320
:1016CC0013601DE07B685B68B3F5A02F0CD1724BE7
:1016DC001B68714A43F4802313606F4B1B686E4A7E
:1016EC0043F4803313600BE06B4B1B686A4A23F4A2
:1016FC0080331360684B1B68674A23F480231360A4
:10170C007B685B68002B13D0FFF730F8386108E07A
:10171C00FFF72CF802463B69D31A642B01D903233B
:10172C0000E25D4B1B6803F40033002BF0D014E097
:10173C00FFF71CF8386108E0FFF718F802463B6920
:10174C00D31A642B01D90323ECE1534B1B6803F42C
:10175C000033002BF0D100E000BF7B681B6803F066
:10176C000203002B63D04C4B5B6803F00C03002B83
:10177C000BD0494B5B6803F00C03082B1CD1464B78
:10178C005B6803F48033002B16D1434B1B6803F0CA
:10179C000203002B05D07B681B69012B01D00123B0
:1017AC00C0E13D4B1B6823F0F8027B685B69DB00F2
:1017BC00394913430B603AE07B681B69002B20D03E
:1017CC00364B01221A60FEF7D1FF386108E0FEF7B4
:1017DC00CDFF02463B69D31A022B01D90323A1E1A9
:1017EC002D4B1B6803F00203002BF0D02A4B1B6817
:1017FC0023F0F8027B685B69DB00274913430B601D
:10180C0015E0264B00221A60FEF7B0FF386108E0A5
:10181C00FEF7ACFF02463B69D31A022B01D9032316
:10182C0080E11D4B1B6803F00203002BF0D17B6899
:10183C001B6803F00803002B3AD07B689B69002BD4
:10184C0019D0174B01221A60FEF790FF386108E09F
:10185C00FEF78CFF02463B69D31A022B01D90323F6
:10186C0060E10D4B5B6A03F00203002BF0D001200A
:10187C0000F0BAFA1CE00A4B00221A60FEF776FF61
:10188C0038610FE0FEF772FF02463B69D31A022B58
:10189C0008D9032346E100BF001002400000424279
:1018AC0080044242924B5B6A03F00203002BE9D1A5
:1018BC007B681B6803F00403002B00F0A680002358
:1018CC00FB758B4BDB6903F08053002B0DD1884BE0
:1018DC00DB69874A43F08053D361854BDB6903F0A6
:1018EC008053BB60BB680123FB75824B1B6803F400
:1018FC008073002B18D17F4B1B687E4A43F4807396
:10190C001360FEF733FF386108E0FEF72FFF024645
:10191C003B69D31A642B01D9032303E1754B1B6874
:10192C0003F48073002BF0D07B68DB68012B06D1AD
:10193C006F4B1B6A6E4A43F0010313622DE07B6808
:10194C00DB68002B0CD16A4B1B6A694A23F001033C
:10195C001362674B1B6A664A23F0040313621CE094
:10196C007B68DB68052B0CD1614B1B6A604A43F02A
:10197C00040313625E4B1B6A5D4A43F0010313625E
:10198C000BE05B4B1B6A5A4A23F001031362584B62
:10199C001B6A574A23F0040313627B68DB68002B35
:1019AC0015D0FEF7E3FE38610AE0FEF7DFFE0246D3
:1019BC003B69D31A41F28832934201D90323B1E037
:1019CC004B4B1B6A03F00203002BEED014E0FEF726
:1019DC00CDFE38610AE0FEF7C9FE02463B69D31A18
:1019EC0041F28832934201D903239BE0404B1B6A9E
:1019FC0003F00203002BEED1FB7D012B05D13C4BF8
:101A0C00DB693B4A23F08053D3617B68DB69002B95
:101A1C0000F08780364B5B6803F00C03082B61D019
:101A2C007B68DB69022B46D1334B00221A60FEF730
:101A3C009DFE386108E0FEF799FE02463B69D31A19
:101A4C00022B01D903236DE0294B1B6803F00073B3
:101A5C00002BF0D17B681B6AB3F5803F08D1244B77
:101A6C005B6823F400327B689B68214913434B600D
:101A7C001F4B5B6823F474127B68196A7B685B6A82
:101A8C000B431B4913434B601B4B01221A60FEF79F
:101A9C006DFE386108E0FEF769FE02463B69D31A19
:101AAC00022B01D903233DE0114B1B6803F000739B
:101ABC00002BF0D035E0104B00221A60FEF756FEDA
:101ACC00386108E0FEF752FE02463B69D31A022B3E
:101ADC0001D9032326E0064B1B6803F00073002B8F
:101AEC00F0D11EE07B68DB69012B07D1012319E0E3
:101AFC000010024000700040600042420B4B5B68DB
:101B0C00FB60FB6803F480327B681B6A9A4206D147
:101B1C00FB6803F470127B685B6A9A4201D0012364
:101B2C0000E0002318461837BD4680BD0010024067
:101B3C0080B584B000AF786039607B68002B01D130
:101B4C000123D0E06A4B1B6803F007033A689A4202
:101B5C0010D9674B1B6823F0070265493B68134398
:101B6C000B60634B1B6803F007033A689A4201D081
:101B7C000123B8E07B681B6803F00203002B20D024
:101B8C007B681B6803F00403002B05D0594B5B6882
:101B9C00584A43F4E06353607B681B6803F0080306
:101BAC00002B05D0534B5B68524A43F4605353608F
:101BBC00504B5B6823F0F0027B689B684D491343E4
:101BCC004B607B681B6803F00103002B40D07B68E3
:101BDC005B68012B07D1474B1B6803F40033002BC8
:101BEC0015D101237FE07B685B68022B07D1414B49
:101BFC001B6803F00073002B09D1012373E03D4BEC
:101C0C001B6803F00203002B01D101236BE0394B5D
:101C1C005B6823F003027B685B68364913434B60B7
:101C2C00FEF7A4FDF8600AE0FEF7A0FD0246FB6893
:101C3C00D31A41F28832934201D9032353E02D4B3E
:101C4C005B6803F00C027B685B689B009A42EBD1EB
:101C5C00274B1B6803F007033A689A4210D2244BB7
:101C6C001B6823F0070222493B6813430B60204B8F
:101C7C001B6803F007033A689A4201D0012332E053
:101C8C007B681B6803F00403002B08D0194B5B68BE
:101C9C0023F4E0627B68DB68164913434B607B6876
:101CAC001B6803F00803002B09D0124B5B6823F46C
:101CBC0060527B681B69DB000E4913434B6000F0DC
:101CCC0021F802460B4B5B681B0903F00F030A4912
:101CDC00CB5C22FA03F3094A1360094B1B681846C4
:101CEC00FEF702FD002318461037BD4680BD00BF2D
:101CFC0000200240001002400027000800000020D5
:101D0C000400002080B487B000AF0023FB600023E8
:101D1C00BB6000237B6100237B6000233B611E4B77
:101D2C005B68FB60FB6803F00C03042B02D0082BF0
:101D3C0003D027E0194B3B6127E0FB689B0C03F0B9
:101D4C000F03174AD35C7B60FB6803F48033002BD2
:101D5C0010D0114B5B685B0C03F00103114AD35C90
:101D6C00BB607B680D4A03FB02F2BB68B2FBF3F36A
:101D7C007B6104E07B680C4A02FB03F37B617B69AB
:101D8C003B6102E0054B3B6100BF3B6918461C37C9
:101D9C00BD4680BC704700BF0010024000127A00A4
:101DAC00182700082827000800093D0080B400AF60
:101DBC00024B1B681846BD4680BC704700000020D3
:101DCC0080B500AFFFF7F2FF0246054B5B68DB0AFC
:101DDC0003F007030349CB5C22FA03F3184680BDDA
:101DEC00001002401027000880B485B000AF786066
:101DFC000A4B1B680A4AA2FB03235B0A7A6802FBA4
:101E0C0003F3FB6000BFFB685A1EFA60002BF9D18C
:101E1C0000BF00BF1437BD4680BC704700000020D7
:101E2C00D34D621080B586B000AF786000233B6163
:101E3C000023FB607B681B6803F00103002B7DD043
:101E4C000023FB754F4BDB6903F08053002B0DD146
:101E5C004C4BDB694B4A43F08053D361494BDB69F4
:101E6C0003F08053BB60BB680123FB75464B1B68BA
:101E7C0003F48073002B18D1434B1B68424A43F484
:101E8C0080731360FEF772FC386108E0FEF76EFC9D
:101E9C0002463B69D31A642B01D903236DE03A4BFC
:101EAC001B6803F48073002BF0D0364B1B6A03F4D1
:101EBC004073FB60FB68002B2ED07B685B6803F4DF
:101ECC004073FA689A4227D02E4B1B6A23F4407356
:101EDC00FB602E4B01221A602C4B00221A60294AFF
:101EEC00FB681362FB6803F00103002B14D0FEF7B0
:101EFC003DFC38610AE0FEF739FC02463B69D31A17
:101F0C0041F28832934201D9032336E01D4B1B6A00
:101F1C0003F00203002BEED01A4B1B6A23F4407221
:101F2C007B685B68174913430B62FB7D012B05D162
:101F3C00144BDB69134A23F08053D3617B681B6815
:101F4C0003F00203002B08D00E4B5B6823F44042D5
:101F5C007B689B680B4913434B607B681B6803F0E1
:101F6C001003002B08D0074B5B6823F480027B68BE
:101F7C00DB68044913434B60002318461837BD46F1
:101F8C0080BD00BF0010024000700040400442427F
:101F9C0080B588B000AF786000237B610023FB61C3
:101FAC0000233B610023FB600023BB617B68102B8B
:101FBC000AD07B68102B00F28A807B68012B45D0FD
:101FCC007B68022B75D082E0464B5B68FB60454B0F
:101FDC001B6803F08073002B7BD0FB689B0C03F019
:101FEC000F03414AD35C3B61FB6803F48033002B45
:101FFC0015D03C4B5B685B0C03F001033B4AD35C94
:10200C007B61FB6803F48033002B0DD0384A7B696D
:10201C00B2FBF3F23B6902FB03F3FB6104E03B69A7
:10202C00344A02FB03F3FB612E4B5B6803F4800321
:10203C00B3F5800F02D1FB69BB614AE0FB695B0021
:10204C002D4AA2FB03235B08BB6142E0254B1B6AB4
:10205C00FB60FB6803F44073B3F5807F08D1FB6829
:10206C0003F00203002B03D04FF40043BB611FE0CD
:10207C00FB6803F44073B3F5007F09D1194B5B6A1D
:10208C0003F00203002B03D049F64043BB610FE081
:10209C00FB6803F44073B3F5407F1CD1114B1B68F4
:1020AC0003F40033002B16D04FF22443BB6112E033
:1020BC0011E0FFF785FE02460A4B5B689B0B03F0B1
:1020CC00030301335B00B2FBF3F3BB6104E000BF1D
:1020DC0002E000BF00E000BFBB6918462037BD46D8
:1020EC0080BD00BF001002402C2700083C270008D0
:1020FC0000127A0000093D00ABAAAAAA80B582B0F2
:10210C0000AF78607B68002B01D1012341E07B6834
:10211C0093F83D30DBB2002B06D17B68002283F8AC
:10212C003C207868FEF74CFA7B68022283F83D204D
:10213C007B681A687B6804331946104600F040F936
:10214C007B68012283F846207B68012283F83E20BD
:10215C007B68012283F83F207B68012283F84020B2
:10216C007B68012283F841207B68012283F842209E
:10217C007B68012283F843207B68012283F844208A
:10218C007B68012283F845207B68012283F83D207F
:10219C00002318460837BD4680BD000080B485B0CA
:1021AC0000AF78607B6893F83D30DBB2012B01D037
:1021BC00012332E07B68022283F83D207B681B6898
:1021CC00184A93420ED07B681B68B3F1804F09D03C
:1021DC007B681B68144A934204D07B681B68134AC3
:1021EC00934211D17B681B689B6803F00703FB606B
:1021FC00FB68062B10D07B681B681A687B681B6811
:10220C0042F001021A6007E07B681B681A687B6861
:10221C001B6842F001021A60002318461437BD46B1
:10222C0080BC7047002C01400004004000080040B6
:10223C0080B584B000AF786039600023FB737B6895
:10224C0093F83C30012B01D10223B4E07B680122CE
:10225C0083F83C207B68022283F83D207B681B6856
:10226C009B68BB60BB6823F07703BB60BB6823F43F
:10227C007F43BB607B681B68BA689A603B681B68CD
:10228C00B3F5005F3ED0B3F5005F00F28780B3F585
:10229C00805F00F08680B3F5805F7FD8702B1AD0FA
:1022AC00702B7BD8602B50D0602B77D8502B3CD028
:1022BC00502B73D8402B58D0402B6FD8302B64D078
:1022CC00302B6BD8202B60D0202B67D8002B5CD008
:1022DC00102B5AD062E07B6818683B6899683B68A1
:1022EC005A683B68DB6800F050F97B681B689B6898
:1022FC00BB60BB6843F07703BB607B681B68BA6844
:10230C009A604FE07B6818683B6899683B685A682C
:10231C003B68DB6800F039F97B681B689A687B685E
:10232C001B6842F480429A603CE07B6818683B680A
:10233C0059683B68DB681A4600F0B0F87B681B688C
:10234C005021184600F007F92CE07B6818683B68B0
:10235C0059683B68DB681A4600F0CEF87B681B684E
:10236C006021184600F0F7F81CE07B6818683B68A1
:10237C0059683B68DB681A4600F090F87B681B686C
:10238C004021184600F0E7F80CE07B681A683B68BF
:10239C001B681946104600F0DEF803E00123FB73BE
:1023AC0000E000BF7B68012283F83D207B6800229F
:1023BC0083F83C20FB7B18461037BD4680BD0000DF
:1023CC0080B485B000AF786039607B681B68FB60B7
:1023DC007B682F4A93420BD07B68B3F1804F07D0B8
:1023EC007B682C4A934203D07B682B4A934208D1DA
:1023FC00FB6823F07003FB603B685B68FA6813436F
:10240C00FB607B68224A93420BD07B68B3F1804F10
:10241C0007D07B681F4A934203D07B681E4A9342C5
:10242C0008D1FB6823F44073FB603B68DB68FA68F7
:10243C001343FB60FB6823F080023B685B6913432A
:10244C00FB607B68FA681A603B689A687B68DA62A2
:10245C003B681A687B689A627B680D4A934203D189
:10246C003B681A697B681A637B6801225A617B6836
:10247C001B6903F00103002B05D07B681B6923F05B
:10248C0001027B681A6100BF1437BD4680BC7047DF
:10249C00002C0140000400400008004080B487B0CC
:1024AC0000AFF860B9607A60FB681B6A7B61FB68FF
:1024BC001B6A23F00102FB681A62FB689B693B6193
:1024CC003B6923F0F0033B617B681B013A691343C2
:1024DC003B617B6923F00A037B617A69BB68134318
:1024EC007B61FB683A699A61FB687A691A6200BF82
:1024FC001C37BD4680BC704780B487B000AFF86015
:10250C00B9607A60FB681B6A7B61FB681B6A23F00D
:10251C001002FB681A62FB689B693B613B6923F400
:10252C0070433B617B681B033A6913433B617B69D6
:10253C0023F0A0037B61BB681B017A6913437B61A9
:10254C00FB683A699A61FB687A691A6200BF1C37AA
:10255C00BD4680BC704780B485B000AF78603960F0
:10256C007B689B68FB60FB6823F07003FB603A6838
:10257C00FB68134343F00703FB607B68FA689A60BF
:10258C0000BF1437BD4680BC704780B487B000AF25
:10259C00F860B9607A603B60FB689B687B617B6923
:1025AC0023F47F437B613B681A027B681A43BB6848
:1025BC0013437A6913437B61FB687A699A6000BFA5
:1025CC001C37BD4680BC704780B485B000AF7860C6
:1025DC0039607B6893F83C30012B01D1022346E033
:1025EC007B68012283F83C207B68022283F83D2023
:1025FC007B681B685B68FB607B681B689B68BB60C7
:10260C00FB6823F07003FB603B681B68FA6813439C
:10261C00FB607B681B68FA685A607B681B68164A0B
:10262C0093420ED07B681B68B3F1804F09D07B6856
:10263C001B68124A934204D07B681B68104A934271
:10264C000CD1BB6823F08003BB603B685B68BA6845
:10265C001343BB607B681B68BA689A607B68012275
:10266C0083F83D207B68002283F83C200023184629
:10267C001437BD4680BC7047002C0140000400405C
:10268C000008004003460244934200D1704703F80F
:10269C00011BF9E770B500260C4D0D4C641BA41002
:1026AC00A64209D100F01AF800260A4D0A4C641B08
:1026BC00A410A64205D170BD55F8043B98470136CD
:1026CC00EEE755F8043B98470136F2E7402700083F
:1026DC00402700084027000844270008F8B500BF31
:1026EC00F8BC08BC9E467047F8B500BFF8BC08BCE7
:0426FC009E4670473F
:1027000000000000000000000102030406070809A1
:102710000000000001020304020304050607080983
:102720000A0B0C0D0E0F101001020000020304052D
:10273000060708090A0B0C0D0E0F1010010200000D
:04274000310100085B
:042744000D0100087B
:0C27480000127A001000000001000000E8
:040000050800067D6C
:00000001FF
